{
  "contractName": "Bank",
  "abi": [
    {
      "anonymous": false,
      "inputs": [
        {
          "indexed": false,
          "internalType": "uint256",
          "name": "amount",
          "type": "uint256"
        },
        {
          "indexed": true,
          "internalType": "address",
          "name": "depositedTo",
          "type": "address"
        }
      ],
      "name": "depositDone",
      "type": "event"
    },
    {
      "inputs": [],
      "name": "owner",
      "outputs": [
        {
          "internalType": "address",
          "name": "",
          "type": "address"
        }
      ],
      "stateMutability": "view",
      "type": "function",
      "constant": true
    },
    {
      "inputs": [],
      "name": "deposit",
      "outputs": [
        {
          "internalType": "uint256",
          "name": "",
          "type": "uint256"
        }
      ],
      "stateMutability": "payable",
      "type": "function",
      "payable": true
    },
    {
      "inputs": [
        {
          "internalType": "uint256",
          "name": "amount",
          "type": "uint256"
        }
      ],
      "name": "withdraw",
      "outputs": [
        {
          "internalType": "uint256",
          "name": "",
          "type": "uint256"
        }
      ],
      "stateMutability": "nonpayable",
      "type": "function"
    },
    {
      "inputs": [],
      "name": "getBalance",
      "outputs": [
        {
          "internalType": "uint256",
          "name": "",
          "type": "uint256"
        }
      ],
      "stateMutability": "view",
      "type": "function",
      "constant": true
    },
    {
      "inputs": [
        {
          "internalType": "address",
          "name": "recipient",
          "type": "address"
        },
        {
          "internalType": "uint256",
          "name": "amount",
          "type": "uint256"
        }
      ],
      "name": "transfer",
      "outputs": [],
      "stateMutability": "nonpayable",
      "type": "function"
    }
  ],
  "bytecode": "0x608060405234801561001057600080fd5b50336000806101000a81548173ffffffffffffffffffffffffffffffffffffffff021916908373ffffffffffffffffffffffffffffffffffffffff160217905550610ca6806100606000396000f3fe60806040526004361061004a5760003560e01c806312065fe01461004f5780632e1a7d4d1461007a5780638da5cb5b146100b7578063a9059cbb146100e2578063d0e30db01461010b575b600080fd5b34801561005b57600080fd5b50610064610129565b6040516100719190610ad2565b60405180910390f35b34801561008657600080fd5b506100a1600480360381019061009c91906108f5565b610170565b6040516100ae9190610ad2565b60405180910390f35b3480156100c357600080fd5b506100cc61033a565b6040516100d99190610a35565b60405180910390f35b3480156100ee57600080fd5b50610109600480360381019061010491906108b9565b61035e565b005b61011361052a565b6040516101209190610ad2565b60405180910390f35b6000600160003373ffffffffffffffffffffffffffffffffffffffff1673ffffffffffffffffffffffffffffffffffffffff16815260200190815260200160002054905090565b60008060009054906101000a900473ffffffffffffffffffffffffffffffffffffffff1673ffffffffffffffffffffffffffffffffffffffff163373ffffffffffffffffffffffffffffffffffffffff16146101cb57600080fd5b81600160003373ffffffffffffffffffffffffffffffffffffffff1673ffffffffffffffffffffffffffffffffffffffff16815260200190815260200160002054101561021757600080fd5b61026982600160003373ffffffffffffffffffffffffffffffffffffffff1673ffffffffffffffffffffffffffffffffffffffff1681526020019081526020016000205461065490919063ffffffff16565b600160003373ffffffffffffffffffffffffffffffffffffffff1673ffffffffffffffffffffffffffffffffffffffff168152602001908152602001600020819055503373ffffffffffffffffffffffffffffffffffffffff166108fc839081150290604051600060405180830381858888f193505050501580156102f2573d6000803e3d6000fd5b50600160003373ffffffffffffffffffffffffffffffffffffffff1673ffffffffffffffffffffffffffffffffffffffff168152602001908152602001600020549050919050565b60008054906101000a900473ffffffffffffffffffffffffffffffffffffffff1681565b80600160003373ffffffffffffffffffffffffffffffffffffffff1673ffffffffffffffffffffffffffffffffffffffff1681526020019081526020016000205410156103e0576040517f08c379a00000000000000000000000000000000000000000000000000000000081526004016103d790610ab2565b60405180910390fd5b8173ffffffffffffffffffffffffffffffffffffffff163373ffffffffffffffffffffffffffffffffffffffff16141561044f576040517f08c379a000000000000000000000000000000000000000000000000000000000815260040161044690610a92565b60405180910390fd5b6000600160003373ffffffffffffffffffffffffffffffffffffffff1673ffffffffffffffffffffffffffffffffffffffff16815260200190815260200160002054905061049e33848461069e565b6104b1828261065490919063ffffffff16565b600160003373ffffffffffffffffffffffffffffffffffffffff1673ffffffffffffffffffffffffffffffffffffffff1681526020019081526020016000205414610525577f4e487b7100000000000000000000000000000000000000000000000000000000600052600160045260246000fd5b505050565b600061057e34600160003373ffffffffffffffffffffffffffffffffffffffff1673ffffffffffffffffffffffffffffffffffffffff168152602001908152602001600020546107cd90919063ffffffff16565b600160003373ffffffffffffffffffffffffffffffffffffffff1673ffffffffffffffffffffffffffffffffffffffff168152602001908152602001600020819055503373ffffffffffffffffffffffffffffffffffffffff167f55b8d2fc1aaf27628691a3336b517d7b40bee36ba595a24e893d1e872afb82d1346040516106079190610ad2565b60405180910390a2600160003373ffffffffffffffffffffffffffffffffffffffff1673ffffffffffffffffffffffffffffffffffffffff16815260200190815260200160002054905090565b600061069683836040518060400160405280601e81526020017f536166654d6174683a207375627472616374696f6e206f766572666c6f77000081525061082b565b905092915050565b6106f081600160008673ffffffffffffffffffffffffffffffffffffffff1673ffffffffffffffffffffffffffffffffffffffff1681526020019081526020016000205461065490919063ffffffff16565b600160008573ffffffffffffffffffffffffffffffffffffffff1673ffffffffffffffffffffffffffffffffffffffff1681526020019081526020016000208190555061078581600160008573ffffffffffffffffffffffffffffffffffffffff1673ffffffffffffffffffffffffffffffffffffffff168152602001908152602001600020546107cd90919063ffffffff16565b600160008473ffffffffffffffffffffffffffffffffffffffff1673ffffffffffffffffffffffffffffffffffffffff16815260200190815260200160002081905550505050565b60008082846107dc9190610b09565b905083811015610821576040517f08c379a000000000000000000000000000000000000000000000000000000000815260040161081890610a72565b60405180910390fd5b8091505092915050565b6000838311158290610873576040517f08c379a000000000000000000000000000000000000000000000000000000000815260040161086a9190610a50565b60405180910390fd5b50600083856108829190610b5f565b9050809150509392505050565b60008135905061089e81610c42565b92915050565b6000813590506108b381610c59565b92915050565b600080604083850312156108cc57600080fd5b60006108da8582860161088f565b92505060206108eb858286016108a4565b9150509250929050565b60006020828403121561090757600080fd5b6000610915848285016108a4565b91505092915050565b61092781610b93565b82525050565b600061093882610aed565b6109428185610af8565b9350610952818560208601610bcf565b61095b81610c31565b840191505092915050565b6000610973601b83610af8565b91507f536166654d6174683a206164646974696f6e206f766572666c6f7700000000006000830152602082019050919050565b60006109b3602083610af8565b91507f446f6e2774207472616e73666572206d6f6e657920746f20796f757273656c666000830152602082019050919050565b60006109f3601683610af8565b91507f42616c616e6365206e6f742073756666696369656e74000000000000000000006000830152602082019050919050565b610a2f81610bc5565b82525050565b6000602082019050610a4a600083018461091e565b92915050565b60006020820190508181036000830152610a6a818461092d565b905092915050565b60006020820190508181036000830152610a8b81610966565b9050919050565b60006020820190508181036000830152610aab816109a6565b9050919050565b60006020820190508181036000830152610acb816109e6565b9050919050565b6000602082019050610ae76000830184610a26565b92915050565b600081519050919050565b600082825260208201905092915050565b6000610b1482610bc5565b9150610b1f83610bc5565b9250827fffffffffffffffffffffffffffffffffffffffffffffffffffffffffffffffff03821115610b5457610b53610c02565b5b828201905092915050565b6000610b6a82610bc5565b9150610b7583610bc5565b925082821015610b8857610b87610c02565b5b828203905092915050565b6000610b9e82610ba5565b9050919050565b600073ffffffffffffffffffffffffffffffffffffffff82169050919050565b6000819050919050565b60005b83811015610bed578082015181840152602081019050610bd2565b83811115610bfc576000848401525b50505050565b7f4e487b7100000000000000000000000000000000000000000000000000000000600052601160045260246000fd5b6000601f19601f8301169050919050565b610c4b81610b93565b8114610c5657600080fd5b50565b610c6281610bc5565b8114610c6d57600080fd5b5056fea26469706673582212206685a0506a23ae9e9efa737efd60434e1e709f39c2eb5c0beb3f9b22d8c4d36764736f6c63430008000033",
  "immutableReferences": {},
  "source": "//SPDX-License-Identifier: UNLICENSED\r\n\r\npragma solidity 0.8.0;\r\npragma abicoder v2;\r\nimport \"./Ownable.sol\";\r\nimport \"./safemath.sol\";\r\n\r\ncontract Bank is Ownable {\r\n\r\n    using SafeMath for uint256;\r\n    \r\n    mapping(address => uint) balance;\r\n    address[] customers;\r\n    \r\n    event depositDone(uint amount, address indexed depositedTo);\r\n    \r\n    function deposit() public payable returns (uint)  {\r\n        balance[msg.sender] = balance[msg.sender].add(msg.value);\r\n        emit depositDone(msg.value, msg.sender);\r\n        return balance[msg.sender];\r\n    }\r\n    \r\n    function withdraw(uint amount) public onlyOwner returns (uint){\r\n        require(balance[msg.sender] >= amount);\r\n        balance[msg.sender] = balance[msg.sender].sub(amount);\r\n        payable(msg.sender).transfer(amount);\r\n        return balance[msg.sender];\r\n    }\r\n    \r\n    function getBalance() public view returns (uint){\r\n        return balance[msg.sender];\r\n    }\r\n    \r\n    function transfer(address recipient, uint amount) public {\r\n        require(balance[msg.sender] >= amount, \"Balance not sufficient\");\r\n        require(msg.sender != recipient, \"Don't transfer money to yourself\");\r\n        \r\n        uint previousSenderBalance = balance[msg.sender];\r\n        \r\n        _transfer(msg.sender, recipient, amount);\r\n        \r\n        assert(balance[msg.sender] == previousSenderBalance.sub(amount));\r\n    }\r\n    \r\n    function _transfer(address from, address to, uint amount) private {\r\n        balance[from] = balance[from].sub(amount);\r\n        balance[to] = balance[to].add(amount);\r\n    }\r\n    \r\n}",
  "sourcePath": "C:\\Users\\schma\\OneDrive\\Documents\\Solidity\\201\\bank\\contracts\\bank.sol",
  "compiler": {
    "name": "solc",
    "version": "0.8.0+commit.c7dfd78e.Emscripten.clang"
  },
  "schemaVersion": "3.4.3",
  "updatedAt": "2022-02-27T22:17:13.571Z",
  "networkType": "ethereum",
  "devdoc": {
    "kind": "dev",
    "methods": {},
    "version": 1
  },
  "userdoc": {
    "kind": "user",
    "methods": {},
    "version": 1
  }
}